:020000000329D2
:0E000600213083120313FD00FD0B07280800B4
:100014000F3083120313FC004730FD00FD0B102842
:0A002400FC0B10280000000008008B
:06002E00000000000800C4
:1000340083120313D41B2028881321288817541BE8
:100044002528081326280817D41A2A2888122B28AA
:100054008816541A2F280812302808164C183428E9
:10006400081535280811881517208811D4193C283B
:1000740088133D2888175419412808134228081763
:10008400D418462888124728881654184B28081272
:100094004C2808164C1850280815512808118815A2
:1000A400172088114C1C58280A20592803200800BE
:0E00B400831203134E088A004D0882000800D4
:1000C200831203134C105308D4001A204C14080056
:1000D2008316031388110811081288120813881353
:1000E20083128811081188130813881208120A2033
:1000F2000A200A20881608168815172088110A2057
:100102008815172088110A208815172088110A20BF
:1001120008128815172088110A20881517208811BF
:10012200881288178815172088110A208813081644
:1001320088151720881108128815172088110A209F
:1001420088151720881108168815172088110A208B
:10015200081288151720881188170817881608169C
:0C0162008815172088110A204C14080092
:10016E00C928803083120313CF00DC28C030CF00A3
:10017E00DC289430CF00DC28D430CF00DC2880304F
:10018E00CF00DC28831203134F08013A0319B82855
:10019E004F08023A0319BD284F08033A0319C02825
:1001AE004F08043A0319C328C6285003F0004F081D
:1001BE00F0077008CF007008D4001A204C10D2013E
:1001CE0052085107840000080319F52852085107F8
:1001DE0084000008D3006120D20AE7284C140800DE
:1001EE005A208A110A128000840ACD0A0319CE0AF7
:0801FE00F003031DF7280800BF
:100206008A2169200130D4001A200C30D4001A202B
:1002160083160614061201308312CF000130D00077
:100226003830D100B7200230CF000130D00047303F
:10023600D100B7206630FB007630FC00C130FD00EF
:10024600FD0B2329FC0B2329FB0B23290130D400AA
:100256001A2006140630FD00FD0B2F29000006109B
:100266000612061E41290130D4001A200130CF00A3
:100276000130D0002030D100B7204B290130D40006
:100286001A200130CF000130D0002C30D100B72029
:100296000530FB000F30FC00F130FD00FD0B51294D
:0C02A600FC0B5129FB0B51292C29582975
:10031400203084002C3083120313F0005E30CD00B3
:080324000130CE00F7200800B3
:1002BC004F34623473347434613463346C34653465
:0802CC002134213421340034F7
:1002D4004E346F3420344F346234733474346134A4
:0802E40063346C34653400340E
:1002EC0054346F34723420345034753474346B3469
:0E02FC00693420344D3461347234613400347E
:0A030A00533461347234613400345E
:02400E004A2F37
:00000001FF
