:020000008A2B49
:0E000600213083120313FD00FD0B07280800B4
:100014000F3083120313FC004730FD00FD0B102842
:0A002400FC0B10280000000008008B
:06002E00000000000800C4
:1000340083120313E91B2028881321288817691BBE
:100044002528081326280817E91A2A2888122B2895
:100054008816691A2F2808123028081651183428CF
:10006400081535280811881517208811E9193C2826
:1000740088133D288817691941280813422808174E
:10008400E918462888124728881669184B28081248
:100094004C2808165118502808155128081188159D
:1000A40017208811511C58280A20592803200800B9
:1000B4007B15FB1F64280130F300F201F101F0010C
:0800C400FA0DF20CFF300800F8
:1000CC0083120313F801F9011030FC00710DF80DC7
:1000DC00F90D7408F8027508031C750FF902031862
:1000EC007E287408F80775080318750FF9070310B4
:0A00FC00F00DF10DFC0B6C2808005C
:08010600FA1FF213003008009B
:0E010E00F201F101F001F801F30100300800E8
:10011C00A0017208031DA3287108F2007008F100F9
:10012C00F001A0157208031DA3287108F200F1015B
:10013C00A011201672080319B1282008F302031D20
:10014C00031CB5280310F21BB928F00DF10DF20DAC
:10015C00F30BA928B5280130FC008720BC280230FD
:0E016C00FC005A20BC280430FC008320080050
:0E017A008312031350088A004F088200080009
:100188008312031351106408E9001A20511408005F
:1001980083120313E701053067020318DA2867089A
:1001A8006607840020308000E70ACF2867086607C2
:1001B80084008001E70367086607E8000A30F40056
:1001C800F5016408F0006508F10066207808F00081
:1001D8007908F1003030F007680884007008800062
:1001E8000A30F400F5016408F0006508F1006620A3
:1001F8007008E4007108E50000307106031D062947
:1002080000307006031D09290B29E703DF280800C1
:06021800FB15FF30080099
:10021E007B14FB1F1A29F201FA1FFF30F200F100C6
:0A022E00F000FA0DF20CFF3008009A
:10023800FB14FB1F2629FF30F300F200F100F00049
:08024800FA0DF20CFF30080072
:10025000831203137408003A031D43297508003AFA
:10026000031D43297608003A031D43297708003A05
:10027000031D4329FF30F000FF30F1007F30F20012
:10028000FF30F300DE298312031377080319D22904
:1002900073080319D529720876068039FA00F21717
:1002A000F617A0017208F8007108FC007008FD0044
:1002B0007408FD027508031C750FFC027608031C08
:1002C000760FF802F801FC01FD01031C6E290310F2
:1002D000F20CF10CF00CF80C0130A0007708F302DE
:1002E000031C78297E302007F3070318D8297D29BD
:1002F0007E302007F307031CDB291830FA07FD0DB9
:10030000FC0DF80DF00DF10DF20DA00D7408F002CA
:100310007508031C750FF1027608031C760FF202B4
:10032000760DA004201C96297D14A1297408F007DD
:1003300075080318750FF10776080318760AF20797
:100340007D10FA031F307A05031D7F297B1B7D1C5E
:10035000C8290310F00DF10DF20DA00D7408F00284
:100360007508031C750FF1027608031C760FF20264
:10037000760D20040139FD070318FC0A0319F80A59
:10038000031DC829F80CFC0CFD0CF30A0319D8292D
:10039000FA1FF8137808F2007C08F1007D08F000DD
:1003A0000030DD2901300C21DD2902308720DD29D4
:0E03B00004301C21DD2908305A20000008000E
:1003BE00831203137008F8007108F000F101F201C6
:1003CE00F301FB01FC019630F300FA01F01FF52951
:1003DE00F809F009F80A0319F00AFA177008F10083
:0C03EE007808F000F801F2018E200800F1
:1003FA0083120313FB01730803193A2A7208FA00DD
:10040A00F2178E30F302F31F3D2AF309F30A08307C
:10041A007302031C202AF300F10D7208F100F201A5
:10042A0008307302031C202AF300F10DF10173084E
:10043A00031D0310282A73080319282A0310F20C33
:10044A00F10CF30B232A7B1B711C322A031C322A60
:10045A00F10A0319F20AF21B492AFA1F4C2AF20975
:10046A00F109F10A0319F20A4C2AF201F1014C2AA4
:10047A007B14FB1F4F2AF201FA1F4F2AFF30F200AA
:10048A00F100FA0DF20C4F2A0130FC00512A00301B
:10049A00FC00512AFF30FC00FC080319552A0F21E1
:0A04AA007108F0007208F10008006C
:1004B40083120313E001E1015B08E2005C08E3003E
:1004C40080305C06F00080307002031D6B2A00301F
:1004D4005B020318792A0130E0000030E1005B0878
:1004E400003CE2005C08031C013EE301E3026208F5
:1004F400E4006308E5005D08E600CC200630DE0079
:100504000030DF005F08003C031D8A2A5E08003CBF
:100514000318A52A5E085D07F20001305E02F000B0
:100524000030031C013E5F02F10070085D07840087
:100534000008F00072088400700880000130DE02B8
:10054400031CDF03842A5D088400203080006008D7
:1005540061040319C32ADE01DF015E085D0784001C
:100564000008203A031DBA2ADE0A0319DF0AAF2A5B
:100574000130DE02031CDF035E085D0784002D30BA
:0405840080000800EB
:10058800BD208A110A128000840ACF0A0319D00AF2
:08059800F003031DC42A080052
:1005A000E22A803083120313DB00F52AC030DB001F
:1005B000F52A9430DB00F52AD430DB00F52A8030B0
:1005C000DB00F52A831203135B08013A0319D12AD1
:1005D0005B08023A0319D62A5B08033A0319D92AA1
:1005E0005B08043A0319DC2ADF2A5C03F0005B088D
:1005F000F0077008DB007008E9001A205110DE01D6
:100600005E085D078400000803190E2B5E085D0775
:1006100084000008E400C420DE0A002B5114080006
:1006200083160313881108110812881208138813FF
:1006300083128811081188130813881208120A20DF
:100640000A200A20881608168815172088110A2003
:100650008815172088110A208815172088110A206C
:1006600008128815172088110A208815172088116C
:10067000881288178815172088110A2088130816F1
:1006800088151720881108128815172088110A204C
:1006900088151720881108168815172088110A2038
:1006A0000812881517208811881708178816081649
:0C06B0008815172088110A20511408003A
:1006BC0083120313DC01DD015B08F2005B08F3001D
:1006CC00720884000008203A031D712B5C085D043D
:1006DC00031D712B7E2B0130DC000030DD00720815
:1006EC0084000008F0007308840070088000F30A8E
:1006FC007208F100F20A710884000008003A031D28
:08070C00662B5B08F0000800F9
:10071400742410230130E9001A200C30E9001A2057
:1007240010308316860001308312DB000130DC00B8
:100734003D30DD00D0220230DB000130DC004B30E4
:10074400DD00D0221F30FB007130FC001E30FD00A4
:10075400FD0BAA2BFC0BAA2BFB0BAA2B00000130D0
:10076400E9001A20103090008F018E010614063023
:10077400FD00FD0BBB2B00000610061AC22BBF2B7D
:100784001014061EC62BC32B10100F08F100F00125
:100794000E08F0040030F1047008D2007108D30090
:1007A400DF21AE30F4004730F5006B30F6008430C2
:1007B400F7002821FD217008D2007108D3007008C9
:1007C400013EF20000300318013E7107F300720885
:1007D400D2007308D30080307306F00080307002BA
:1007E400031DF62B02307202031C282C8030013AC0
:1007F400F000803053067002031D022C5208903C16
:10080400031C282C5208DB005308DC005430DD00A4
:100814005A225430DB005E230130E9001A200130F3
:10082400DB000130DC002E30DD00D0220130DB00A3
:100834000C30DC005430DD00D0220130DB000F30FE
:10084400DC003A30DD00D0220614332C0130E900FC
:100854001A200130DB000130DC002130DD00D02221
:1008640006100530FB000F30FC00F130FD00FD0BDD
:0E087400392CFC0B392CFB0B392CB62B402CED
:1008E800213084002E3083120313F0004630CF00ED
:0808F8000430D000C422080006
:10088C004F347534743420346F346634203452341D
:0A089C0061346E34673465340034B3
:1008A600443469347334743461346E346334653477
:0808B60020343D3420340034ED
:0608BE0063346D340034C8
:1008C400433453344534333433343134203453349F
:0C08D400653463342D3430343234003489
:0808E000523453344634003455
:02400E004A2F37
:00000001FF
