:020000008D2B46
:0E000600533083120313FD00FD0B0728080082
:10001400243083120313FC00B530FD00FD0B1028BF
:0A002400FC0B10280000000008008B
:0C002E00000000000000000000000800BE
:10003A0083120313E91B2328881324288817691BB2
:10004A002828081329280817E91A2D2888122E2883
:10005A008816691A322808123328081651183728C0
:10006A00081538280811881517208811E9193F281A
:10007A00881340288817691944280813452808173F
:10008A00E918492888124A28881669184E28081239
:10009A004F2808165118532808155428081188158E
:1000AA0017208811511C5B280A205C2803200800AD
:1000BA007B15FB1F67280130F300F201F101F00103
:0800CA00FA0DF20CFF300800F2
:1000D20083120313F801F9011030FC00710DF80DC1
:1000E200F90D7408F8027508031C750FF90203185C
:1000F20081287408F80775080318750FF9070310AB
:0A010200F00DF10DFC0B6F28080052
:08010C00FA1FF2130030080095
:0E011400F201F101F001F801F30100300800E2
:10012200A0017208031DA6287108F2007008F100F0
:10013200F001A0157208031DA6287108F200F10152
:10014200A011201672080319B4282008F302031D17
:10015200031CB8280310F21BBC28F00DF10DF20DA0
:10016200F30BAC28B8280130FC008A20BF280230EB
:0E017200FC005D20BF280430FC008620080041
:0E0180008312031350088A004F088200080003
:10018E008312031351106408E9001D205114080056
:10019E0083120313E701053067020318DD28670891
:1001AE006607840020308000E70AD22867086607B9
:1001BE0084008001E70367086607E8000A30F40050
:1001CE00F5016408F0006508F10069207808F00078
:1001DE007908F1003030F00768088400700880005C
:1001EE000A30F400F5016408F0006508F10069209A
:1001FE007008E4007108E50000307106031D09293E
:10020E0000307006031D0C290E29E703E2280800B2
:06021E00FB15FF30080093
:100224007B14FB1F1D29F201FA1FFF30F200F100BD
:0A023400F000FA0DF20CFF30080094
:10023E00FB14FB1F2929FF30F300F200F100F00040
:08024E00FA0DF20CFF3008006C
:10025600831203137408003A031D46297508003AF1
:10026600031D46297608003A031D46297708003AF9
:10027600031D4629FF30F000FF30F1007F30F20009
:10028600FF30F300E1298312031377080319D529F8
:1002960073080319D829720876068039FA00F2170E
:1002A600F617A0017208F8007108FC007008FD003E
:1002B6007408FD027508031C750FFC027608031C02
:1002C600760FF802F801FC01FD01031C71290310E9
:1002D600F20CF10CF00CF80C0130A0007708F302D8
:1002E600031C7B297E302007F3070318DB298029AE
:1002F6007E302007F307031CDE291830FA07FD0DB0
:10030600FC0DF80DF00DF10DF20DA00D7408F002C4
:100316007508031C750FF1027608031C760FF202AE
:10032600760DA004201C99297D14A4297408F007D1
:1003360075080318750FF10776080318760AF20791
:100346007D10FA031F307A05031D82297B1B7D1C55
:10035600CB290310F00DF10DF20DA00D7408F0027B
:100366007508031C750FF1027608031C760FF2025E
:10037600760D20040139FD070318FC0A0319F80A53
:10038600031DCB29F80CFC0CFD0CF30A0319DB2921
:10039600FA1FF8137808F2007C08F1007D08F000D7
:1003A6000030E02901300F21E02902308A20E029BF
:0E03B60004301F21E02908305D2000000800FF
:1003C400831203137008F8007108F000F101F201C0
:1003D400F301FB01FC019630F300FA01F01FF82948
:1003E400F809F009F80A0319F00AFA177008F1007D
:0C03F4007808F000F801F20191200800E8
:1004000083120313FB01730803193D2A7208FA00D3
:10041000F2178E30F302F31F402AF309F30A083073
:100420007302031C232AF300F10D7208F100F2019C
:1004300008307302031C232AF300F10DF101730845
:10044000031D03102B2A730803192B2A0310F20C27
:10045000F10CF30B262A7B1B711C352A031C352A51
:10046000F10A0319F20AF21B4C2AFA1F4F2AF20969
:10047000F109F10A0319F20A4F2AF201F1014F2A98
:100480007B14FB1F522AF201FA1F522AFF30F2009E
:10049000F100FA0DF20C522A0130FC00542A00300F
:1004A000FC00542AFF30FC00FC080319582A1221D2
:0A04B0007108F0007208F100080066
:1004BA0083120313E001E1015B08E2005C08E30038
:1004CA0080305C06F00080307002031D6E2A003016
:1004DA005B0203187C2A0130E0000030E1005B086F
:1004EA00003CE2005C08031C013EE301E3026208EF
:1004FA00E4006308E5005D08E600CF200630DE0070
:10050A000030DF005F08003C031D8D2A5E08003CB6
:10051A000318A82A5E085D07F20001305E02F000A7
:10052A000030031C013E5F02F10070085D07840081
:10053A000008F00072088400700880000130DE02B2
:10054A00031CDF03872A5D088400203080006008CE
:10055A0061040319C62ADE01DF015E085D07840013
:10056A000008203A031DBD2ADE0A0319DF0AB22A4F
:10057A000130DE02031CDF035E085D0784002D30B4
:04058A0080000800E5
:10058E00C0208A110A128000840ACF0A0319D00AE9
:08059E00F003031DC72A080049
:1005A600E52A803083120313DB00F82AC030DB0013
:1005B600F82A9430DB00F82AD430DB00F82A8030A1
:1005C600DB00F82A831203135B08013A0319D42AC5
:1005D6005B08023A0319D92A5B08033A0319DC2A95
:1005E6005B08043A0319DF2AE22A5C03F0005B0881
:1005F600F0077008DB007008E9001D205110DE01CD
:100606005E085D07840000080319112B5E085D076C
:1006160084000008E400C720DE0A032B51140800FA
:1006260083160313881108110812881208138813F9
:1006360083128811081188130813881208120A20D9
:100646000A200A20881608168815172088110A20FD
:100656008815172088110A208815172088110A2066
:1006660008128815172088110A2088151720881166
:10067600881288178815172088110A2088130816EB
:1006860088151720881108128815172088110A2046
:1006960088151720881108168815172088110A2032
:1006A6000812881517208811881708178816081643
:0C06B6008815172088110A205114080034
:1006C20083120313DC01DD015B08F2005B08F30017
:1006D200720884000008203A031D742B5C085D0434
:1006E200031D742B812B0130DC000030DD00720809
:1006F20084000008F0007308840070088000F30A88
:100702007208F100F20A710884000008003A031D21
:08071200692B5B08F0000800F0
:10071A00742413230130E9001D200C30E9001D2048
:10072A0010308316860001308312DB000130DC00B2
:10073A003D30DD00D3220230DB000130DC004B30DB
:10074A00DD00D3224D30FB001930FC004F30FD0094
:10075A00FD0BAD2BFC0BAD2BFB0BAD2B00000000F2
:10076A000130E9001D20103090008F018E0106141F
:10077A001030FD00FD0BBF2B00000610061AC62B19
:10078A00C32B1014061ECA2BC72B10100E08F0001C
:10079A00F1017008D2007108D300E221AE30F400F2
:1007AA004730F5006B30F6008430F7002B21002229
:1007BA007008D2007108D3007008013EF2000030C0
:1007CA000318013E7107F3007208D2007308D300C0
:1007DA0080307306F00080307002031DF62B023061
:1007EA007202031C272C8030013AF0008030530635
:1007FA007002031D022C5208903C031C272C52083D
:10080A00DB005308DC005430DD005D225430DB008D
:10081A0061230130E9001D200130DB000130DC00DA
:10082A002E30DD00D3220130DB000C30DC005430E6
:10083A00DD00D3220130DB000F30DC003A30DD006E
:10084A00D322312C0130E9001D200130DB000130B8
:10085A00DC002130DD00D3220B30FB002630FC0007
:10086A005D30FD00FD0B372CFC0B372CFB0B372CB6
:08087A0000000000BA2B402C25
:1008E800213084002E3083120313F0004630CF00ED
:0808F8000430D000C722080003
:10088C004F347534743420346F346634203452341D
:0A089C0061346E34673465340034B3
:1008A600443469347334743461346E346334653477
:0808B60020343D3420340034ED
:0608BE0063346D340034C8
:1008C400433453344534333433343134203453349F
:0C08D400653463342D3430343234003489
:0808E000523453344634003455
:02400E004A2F37
:00000001FF
