:020000008A2B49
:0E000600213083120313FD00FD0B07280800B4
:100014000F3083120313FC004730FD00FD0B102842
:0A002400FC0B10280000000008008B
:06002E00000000000800C4
:1000340083120313E31B2028881321288817631BCA
:100044002528081326280817E31A2A2888122B289B
:100054008816631A2F2808123028081649183428DD
:10006400081535280811881517208811E3193C282C
:1000740088133D2888176319412808134228081754
:10008400E318462888124728881663184B28081254
:100094004C280816491850280815512808118815A5
:1000A40017208811491C58280A20592803200800C1
:1000B4007B15FB1F64280130F300F201F101F0010C
:0800C400FA0DF20CFF300800F8
:1000CC0083120313F801F9011030FC00710DF80DC7
:1000DC00F90D7408F8027508031C750FF902031862
:1000EC007E287408F80775080318750FF9070310B4
:0A00FC00F00DF10DFC0B6C2808005C
:08010600FA1FF213003008009B
:0E010E00F201F101F001F801F30100300800E8
:10011C00A0017208031DA3287108F2007008F100F9
:10012C00F001A0157208031DA3287108F200F1015B
:10013C00A011201672080319B1282008F302031D20
:10014C00031CB5280310F21BB928F00DF10DF20DAC
:10015C00F30BA928B5280130FC008720BC280230FD
:0E016C00FC005A20BC280430FC008320080050
:0E017A00831203134B088A004A088200080013
:100188008312031349105E08E3001A20491408007B
:1001980083120313E101053061020318DA286108AC
:1001A8006007840020308000E10ACF2861086007DA
:1001B80084008001E10361086007E2000A30F4006E
:1001C800F5015E08F0005F08F10066207808F0008D
:1001D8007908F1003030F007620884007008800068
:1001E8000A30F400F5015E08F0005F08F1006620AF
:1001F8007008DE007108DF0000307106031D062953
:1002080000307006031D09290B29E103DF280800C7
:06021800FB15FF30080099
:10021E007B14FB1F1A29F201FA1FFF30F200F100C6
:0A022E00F000FA0DF20CFF3008009A
:10023800FB14FB1F2629FF30F300F200F100F00049
:08024800FA0DF20CFF30080072
:10025000831203137408003A031D43297508003AFA
:10026000031D43297608003A031D43297708003A05
:10027000031D4329FF30F000FF30F1007F30F20012
:10028000FF30F300DE298312031377080319D22904
:1002900073080319D529720876068039FA00F21717
:1002A000F617A0017208F8007108FC007008FD0044
:1002B0007408FD027508031C750FFC027608031C08
:1002C000760FF802F801FC01FD01031C6E290310F2
:1002D000F20CF10CF00CF80C0130A0007708F302DE
:1002E000031C78297E302007F3070318D8297D29BD
:1002F0007E302007F307031CDB291830FA07FD0DB9
:10030000FC0DF80DF00DF10DF20DA00D7408F002CA
:100310007508031C750FF1027608031C760FF202B4
:10032000760DA004201C96297D14A1297408F007DD
:1003300075080318750FF10776080318760AF20797
:100340007D10FA031F307A05031D7F297B1B7D1C5E
:10035000C8290310F00DF10DF20DA00D7408F00284
:100360007508031C750FF1027608031C760FF20264
:10037000760D20040139FD070318FC0A0319F80A59
:10038000031DC829F80CFC0CFD0CF30A0319D8292D
:10039000FA1FF8137808F2007C08F1007D08F000DD
:1003A0000030DD2901300C21DD2902308720DD29D4
:0E03B00004301C21DD2908305A20000008000E
:1003BE00831203137008F8007108F000F101F201C6
:1003CE00F301FB01FC019630F300FA01F01FF52951
:1003DE00F809F009F80A0319F00AFA177008F10083
:0C03EE007808F000F801F2018E200800F1
:1003FA0083120313FB01730803193A2A7208FA00DD
:10040A00F2178E30F302F31F3D2AF309F30A08307C
:10041A007302031C202AF300F10D7208F100F201A5
:10042A0008307302031C202AF300F10DF10173084E
:10043A00031D0310282A73080319282A0310F20C33
:10044A00F10CF30B232A7B1B711C322A031C322A60
:10045A00F10A0319F20AF21B492AFA1F4C2AF20975
:10046A00F109F10A0319F20A4C2AF201F1014C2AA4
:10047A007B14FB1F4F2AF201FA1F4F2AFF30F200AA
:10048A00F100FA0DF20C4F2A0130FC00512A00301B
:10049A00FC00512AFF30FC00FC080319552A0F21E1
:0A04AA007108F0007208F10008006C
:1004B40083120313DA01DB015508DC005608DD0062
:1004C40080305606F00080307002031D6B2A003025
:1004D40055020318792A0130DA000030DB00550890
:1004E400003CDC005608031C013EDD01DD025C0813
:1004F400DE005D08DF005708E000CC200630D8009D
:100504000030D9005908003C031D8A2A5808003CD1
:100514000318A52A58085707F20001305802F000C2
:100524000030031C013E5902F10070085707840093
:100534000008F00072088400700880000130D802BE
:10054400031CD903842A57088400203080005A08E9
:100554005B040319C32AD801D9015808570784003A
:100564000008203A031DBA2AD80A0319D90AAF2A67
:100574000130D802031CD9035808570784002D30D2
:0405840080000800EB
:10058800BD208A110A128000840ACA0A0319CB0AFC
:08059800F003031DC42A080052
:1005A000E22A803083120313D500F52AC030D5002B
:1005B000F52A9430D500F52AD430D500F52A8030BC
:1005C000D500F52A831203135508013A0319D12ADD
:1005D0005508023A0319D62A5508033A0319D92AAD
:1005E0005508043A0319DC2ADF2A5603F00055089F
:1005F000F0077008D5007008E3001A204910D801F0
:10060000580857078400000803190E2B580857078D
:1006100084000008DE00C420D80A002B491408001A
:1006200083160313881108110812881208138813FF
:1006300083128811081188130813881208120A20DF
:100640000A200A20881608168815172088110A2003
:100650008815172088110A208815172088110A206C
:1006600008128815172088110A208815172088116C
:10067000881288178815172088110A2088130816F1
:1006800088151720881108128815172088110A204C
:1006900088151720881108168815172088110A2038
:1006A0000812881517208811881708178816081649
:0C06B0008815172088110A204914080042
:1006BC0083120313D601D7015508F2005508F30035
:1006CC00720884000008203A031D712B5608570449
:1006DC00031D712B7E2B0130D6000030D700720821
:1006EC0084000008F0007308840070088000F30A8E
:1006FC007208F100F20A710884000008003A031D28
:08070C00662B5508F0000800FF
:10071400602410230130E3001A200C30E3001A2077
:10072400103083168600850101308312D500013014
:10073400D6003730D700D0220230D5000130D600A1
:100744004530D700D0221F30FB007130FC001E3032
:10075400FD00FD0BAB2BFC0BAB2BFB0BAB2B000001
:100764000130E3001A20103090008F018E0106142E
:100774000630FD00FD0BBC2B00000610061AC32B2F
:10078400C02B1014061EC72BC42B10100F08F10029
:10079400F0010E08F0040030F1047008CC00710878
:1007A400CD00DF21AE30F4004730F5006B30F600A9
:1007B4008430F7002821FD217008CC007108CD0099
:1007C4007008013EF20000300318013E7107F30087
:1007D4007208CC007308CD0080307306F0008030BE
:1007E4007002031DF72B02307202031C1A2C803096
:1007F400F00080304D067002031D022C4C08643C4E
:10080400031C1A2C4C08D5004D08D6004E30D700D6
:100814005A224E30D5005E230130E3001A20013005
:10082400D5000130D6002130D700D0220514252C64
:100834000130E3001A200130D5000130D6002A30FF
:10084400D700D02205100330FB000830FC007730BD
:10085400FD00FD0B2B2CFC0B2B2CFB0B2B2CB72B9B
:02086400322C34
:1008C00021308400283083120313F0003830CA002E
:0808D0000430CB00C422080033
:100870004F34623473347434613463346C346534AB
:02088000003442
:100882004F347534743420346F3466342034523427
:0A08920061346E34673465340034BD
:10089C0043345334453433343334313420345334C7
:0C08AC00453443342D34303432340034F1
:0808B80052345334463400347D
:02400E004A2F37
:00000001FF
