:020000000329D2
:0E000600213083120313FD00FD0B07280800B4
:100014000F3083120313FC004730FD00FD0B102842
:0A002400FC0B10280000000008008B
:06002E00000000000800C4
:1000340083120313E61B2028881321288817661BC4
:100044002528081326280817E61A2A2888122B2898
:100054008816661A2F2808123028081660183428C3
:10006400081535280811881517208811E6193C2829
:1000740088133D2888176619412808134228081751
:10008400E618462888124728881666184B2808124E
:100094004C2808166018502808155128081188158E
:1000A40017208811601C58280A20592803200800AA
:0E00B400831203135F088A005E0882000800B2
:1000C2008312031360106508E6001A20601408000A
:1000D2008316031388110811081288120813881353
:1000E20083128811081188130813881208120A2033
:1000F2000A200A20881608168815172088110A2057
:100102008815172088110A208815172088110A20BF
:1001120008128815172088110A20881517208811BF
:10012200881288178815172088110A208813081644
:1001320088151720881108128815172088110A209F
:1001420088151720881108168815172088110A208B
:10015200081288151720881188170817881608169C
:0C0162008815172088110A20601408007E
:10016E00C928803083120313E100DC28C030E1007F
:10017E00DC289430E100DC28D430E100DC2880302B
:10018E00E100DC28831203136108013A0319B82831
:10019E006108023A0319BD286108033A0319C02801
:1001AE006108043A0319C328C6286203F0006108E7
:1001BE00F0077008E1007008E6001A206010E401F4
:1001CE0064086307840000080319F52864086307B0
:1001DE0084000008E5006120E40AE72860140800A6
:1001EE005A208A110A128000840ADE0A0319DF0AD5
:0801FE00F003031DF7280800BF
:10020600A82169200130E6001A200C30E6001A20E9
:1002160083160614061201308312E1000130E20053
:100226004F30E300B7200230E1000130E2004B30EE
:10023600E300B7203330FB00BB30FC00DF30FD00AD
:10024600FD0B2329FC0B2329FB0B232900000000AF
:100256000130E6001A2006140630FD00FD0B312998
:10026600000006100612061E4A290130E6001A2072
:100276000130E1000130E2002A30E300B72002300D
:10028600E1000130E2002030E300B72054290130BC
:10029600E6001A200130E1000130E2003B30E300C5
:1002A600B7203330FB00BB30FC00DF30FD00FD0B18
:1002B6005A29FC0B5A29FB0B5A29000000002E294B
:0202C6006329AA
:10035000203084003E3083120313F0006930DE0049
:080360000130DF00F720080066
:1002D2004D346134723461342034473465346C34C3
:0402E2006F34003441
:1002E600533461346D346E346534203444346534AB
:1002F6006B34683420345034753474346B34693458
:020306000034C1
:1003080042346534633468346534203447346534A2
:100318006C34693420344D3461346D3461340034C4
:08032800523453344634003412
:1003300043345334453420343334333431345F342C
:0E0340005334453443345F34303432340034A7
:02400E004A2F37
:00000001FF
